{
  "contractName": "Crowdsale",
  "abi": [
    {
      "inputs": [
        {
          "name": "rate",
          "type": "uint256"
        },
        {
          "name": "minSpent",
          "type": "uint256"
        },
        {
          "name": "cap",
          "type": "uint256"
        },
        {
          "name": "token",
          "type": "address"
        }
      ],
      "payable": false,
      "stateMutability": "nonpayable",
      "type": "constructor",
      "signature": "constructor"
    },
    {
      "anonymous": false,
      "inputs": [
        {
          "indexed": true,
          "name": "purchaser",
          "type": "address"
        },
        {
          "indexed": true,
          "name": "beneficiary",
          "type": "address"
        },
        {
          "indexed": false,
          "name": "value",
          "type": "uint256"
        },
        {
          "indexed": false,
          "name": "amount",
          "type": "uint256"
        }
      ],
      "name": "TokensPurchased",
      "type": "event",
      "signature": "0x6faf93231a456e552dbc9961f58d9713ee4f2e69d15f1975b050ef0911053a7b"
    },
    {
      "anonymous": false,
      "inputs": [
        {
          "indexed": false,
          "name": "cap",
          "type": "uint256"
        },
        {
          "indexed": false,
          "name": "weiRaised",
          "type": "uint256"
        }
      ],
      "name": "CapRaised",
      "type": "event",
      "signature": "0x0e6972ceebba9c855f94bf61b686def6eb9fd69224e6ab849e48a23c438bdfab"
    },
    {
      "constant": false,
      "inputs": [],
      "name": "purchaseToken",
      "outputs": [],
      "payable": true,
      "stateMutability": "payable",
      "type": "function",
      "signature": "0xa95c4d62"
    },
    {
      "constant": true,
      "inputs": [],
      "name": "token",
      "outputs": [
        {
          "name": "",
          "type": "address"
        }
      ],
      "payable": false,
      "stateMutability": "view",
      "type": "function",
      "signature": "0xfc0c546a"
    },
    {
      "constant": true,
      "inputs": [],
      "name": "owner",
      "outputs": [
        {
          "name": "",
          "type": "address"
        }
      ],
      "payable": false,
      "stateMutability": "view",
      "type": "function",
      "signature": "0x8da5cb5b"
    },
    {
      "constant": true,
      "inputs": [],
      "name": "rate",
      "outputs": [
        {
          "name": "",
          "type": "uint256"
        }
      ],
      "payable": false,
      "stateMutability": "view",
      "type": "function",
      "signature": "0x2c4e722e"
    },
    {
      "constant": true,
      "inputs": [],
      "name": "weiRaised",
      "outputs": [
        {
          "name": "",
          "type": "uint256"
        }
      ],
      "payable": false,
      "stateMutability": "view",
      "type": "function",
      "signature": "0x4042b66f"
    },
    {
      "constant": true,
      "inputs": [],
      "name": "cap",
      "outputs": [
        {
          "name": "",
          "type": "uint256"
        }
      ],
      "payable": false,
      "stateMutability": "view",
      "type": "function",
      "signature": "0x355274ea"
    },
    {
      "constant": true,
      "inputs": [],
      "name": "minSpent",
      "outputs": [
        {
          "name": "",
          "type": "uint256"
        }
      ],
      "payable": false,
      "stateMutability": "view",
      "type": "function",
      "signature": "0x3646ff9b"
    },
    {
      "constant": false,
      "inputs": [
        {
          "name": "amount",
          "type": "uint256"
        }
      ],
      "name": "raiseCap",
      "outputs": [],
      "payable": false,
      "stateMutability": "nonpayable",
      "type": "function",
      "signature": "0x5410ac50"
    },
    {
      "constant": false,
      "inputs": [
        {
          "name": "beneficiary",
          "type": "address"
        }
      ],
      "name": "buyTokens",
      "outputs": [],
      "payable": true,
      "stateMutability": "payable",
      "type": "function",
      "signature": "0xec8ac4d8"
    }
  ],
  "bytecode": "0x608060405234801561001057600080fd5b50604051608080610d638339810180604052608081101561003057600080fd5b810190808051906020019092919080519060200190929190805190602001909291908051906020019092919050505060016000819055506000841115156100df576040517f08c379a00000000000000000000000000000000000000000000000000000000081526004018080602001828103825260108152602001807f72617465206973206e656761746976650000000000000000000000000000000081525060200191505060405180910390fd5b600073ffffffffffffffffffffffffffffffffffffffff168173ffffffffffffffffffffffffffffffffffffffff1614151515610184576040517f08c379a000000000000000000000000000000000000000000000000000000000815260040180806020018281038252600b8152602001807f616464726573732030783000000000000000000000000000000000000000000081525060200191505060405180910390fd5b6000821115156101fc576040517f08c379a000000000000000000000000000000000000000000000000000000000815260040180806020018281038252600f8152602001807f636170206973206e65676174697665000000000000000000000000000000000081525060200191505060405180910390fd5b8160068190555033600260006101000a81548173ffffffffffffffffffffffffffffffffffffffff021916908373ffffffffffffffffffffffffffffffffffffffff1602179055508360038190555080600160006101000a81548173ffffffffffffffffffffffffffffffffffffffff021916908373ffffffffffffffffffffffffffffffffffffffff1602179055508260058190555050505050610abd806102a66000396000f3fe608060405260043610610099576000357c0100000000000000000000000000000000000000000000000000000000900463ffffffff1680632c4e722e1461009e578063355274ea146100c95780633646ff9b146100f45780634042b66f1461011f5780635410ac501461014a5780638da5cb5b14610185578063a95c4d62146101dc578063ec8ac4d8146101e6578063fc0c546a1461022a575b600080fd5b3480156100aa57600080fd5b506100b3610281565b6040518082815260200191505060405180910390f35b3480156100d557600080fd5b506100de61028b565b6040518082815260200191505060405180910390f35b34801561010057600080fd5b50610109610295565b6040518082815260200191505060405180910390f35b34801561012b57600080fd5b5061013461029f565b6040518082815260200191505060405180910390f35b34801561015657600080fd5b506101836004803603602081101561016d57600080fd5b81019080803590602001909291905050506102a9565b005b34801561019157600080fd5b5061019a61043c565b604051808273ffffffffffffffffffffffffffffffffffffffff1673ffffffffffffffffffffffffffffffffffffffff16815260200191505060405180910390f35b6101e4610466565b005b610228600480360360208110156101fc57600080fd5b81019080803573ffffffffffffffffffffffffffffffffffffffff169060200190929190505050610471565b005b34801561023657600080fd5b5061023f61052c565b604051808273ffffffffffffffffffffffffffffffffffffffff1673ffffffffffffffffffffffffffffffffffffffff16815260200191505060405180910390f35b6000600354905090565b6000600654905090565b6000600554905090565b6000600454905090565b600260009054906101000a900473ffffffffffffffffffffffffffffffffffffffff1673ffffffffffffffffffffffffffffffffffffffff163373ffffffffffffffffffffffffffffffffffffffff1614151561036e576040517f08c379a00000000000000000000000000000000000000000000000000000000081526004018080602001828103825260098152602001807f4f776e657220307830000000000000000000000000000000000000000000000081525060200191505060405180910390fd5b6000811115156103e6576040517f08c379a000000000000000000000000000000000000000000000000000000000815260040180806020018281038252600f8152602001807f616d6f756e74206e65676174697665000000000000000000000000000000000081525060200191505060405180910390fd5b806006600082825401925050819055507f0e6972ceebba9c855f94bf61b686def6eb9fd69224e6ab849e48a23c438bdfab600654600454604051808381526020018281526020019250505060405180910390a150565b6000600260009054906101000a900473ffffffffffffffffffffffffffffffffffffffff16905090565b61046f33610471565b565b60003490506104808282610556565b600061048b8261076e565b90506104a28260045461078c90919063ffffffff16565b6004819055506104b28382610816565b8273ffffffffffffffffffffffffffffffffffffffff163373ffffffffffffffffffffffffffffffffffffffff167f6faf93231a456e552dbc9961f58d9713ee4f2e69d15f1975b050ef0911053a7b8484604051808381526020018281526020019250505060405180910390a3610527610824565b505050565b6000600160009054906101000a900473ffffffffffffffffffffffffffffffffffffffff16905090565b600654600454111515156105d2576040517f08c379a000000000000000000000000000000000000000000000000000000000815260040180806020018281038252600b8152602001807f636170207265616368656400000000000000000000000000000000000000000081525060200191505060405180910390fd5b600073ffffffffffffffffffffffffffffffffffffffff168273ffffffffffffffffffffffffffffffffffffffff1614151515610677576040517f08c379a000000000000000000000000000000000000000000000000000000000815260040180806020018281038252600b8152602001807f616464726573732030783000000000000000000000000000000000000000000081525060200191505060405180910390fd5b600081141515156106f0576040517f08c379a000000000000000000000000000000000000000000000000000000000815260040180806020018281038252600e8152602001807f57656920616d6f756e74203d203000000000000000000000000000000000000081525060200191505060405180910390fd5b600554341015151561076a576040517f08c379a00000000000000000000000000000000000000000000000000000000081526004018080602001828103825260128152602001807f77656920616d6f756e7420746f6f206c6f77000000000000000000000000000081525060200191505060405180910390fd5b5050565b60006107856003548361088f90919063ffffffff16565b9050919050565b600080828401905083811015151561080c576040517f08c379a00000000000000000000000000000000000000000000000000000000081526004018080602001828103825260098152602001807f6572726f7220616464000000000000000000000000000000000000000000000081525060200191505060405180910390fd5b8091505092915050565b6108208282610936565b5050565b600260009054906101000a900473ffffffffffffffffffffffffffffffffffffffff1673ffffffffffffffffffffffffffffffffffffffff166108fc349081150290604051600060405180830381858888f1935050505015801561088c573d6000803e3d6000fd5b50565b6000808314156108a25760009050610930565b600082840290508284828115156108b557fe5b0414151561092b576040517f08c379a00000000000000000000000000000000000000000000000000000000081526004018080602001828103825260148152602001807f6572726f72206d756c7469706c69636174696f6e00000000000000000000000081525060200191505060405180910390fd5b809150505b92915050565b600160009054906101000a900473ffffffffffffffffffffffffffffffffffffffff1673ffffffffffffffffffffffffffffffffffffffff166323b872dd600260009054906101000a900473ffffffffffffffffffffffffffffffffffffffff1684846040518463ffffffff167c0100000000000000000000000000000000000000000000000000000000028152600401808473ffffffffffffffffffffffffffffffffffffffff1673ffffffffffffffffffffffffffffffffffffffff1681526020018373ffffffffffffffffffffffffffffffffffffffff1673ffffffffffffffffffffffffffffffffffffffff1681526020018281526020019350505050602060405180830381600087803b158015610a5157600080fd5b505af1158015610a65573d6000803e3d6000fd5b505050506040513d6020811015610a7b57600080fd5b810190808051906020019092919050505050505056fea165627a7a723058206f91b829e5e664e798f9007685063a7a9b84b71c7eebfb769d5262aeaaca5a580029",
  "source": "pragma solidity >= 0.4.24;\r\n\r\nimport \"./ERC20.sol\";\r\nimport \"./ReentrancyGuard.sol\";\r\n\r\ncontract Crowdsale is ReentrancyGuard {\r\n\r\n    using SafeMath for uint256;\r\n\r\n    event TokensPurchased(address indexed purchaser, address indexed beneficiary, uint value, uint amount);\r\n    event CapRaised(uint cap, uint weiRaised);\r\n\r\n    ERC20 private _token;\r\n\r\n    address payable private _owner;\r\n\r\n    uint private _rate;\r\n    uint private _weiRaised;\r\n\r\n    uint private _minSpent;\r\n    uint private _cap;\r\n\r\n    constructor (uint rate, uint minSpent, uint cap, ERC20 token) public {\r\n        require(rate > 0, \"rate is negative\");\r\n        require(address(token) != address(0), \"address 0x0\");\r\n        require(cap > 0, \"cap is negative\");\r\n\r\n        _cap = cap;\r\n        _owner = msg.sender;\r\n        _rate = rate;\r\n        _token = token;\r\n        _minSpent = minSpent;\r\n    }\r\n\r\n\r\n    function purchaseToken () external payable {\r\n        buyTokens(msg.sender);\r\n    }\r\n\r\n\r\n\r\n    function token() public view returns (ERC20) {\r\n        return _token;\r\n    }\r\n\r\n    function owner() public view returns (address) {\r\n        return _owner;\r\n    }\r\n\r\n    function rate() public view returns (uint) {\r\n        return _rate;\r\n    }\r\n\r\n    function weiRaised() public view returns (uint) {\r\n        return _weiRaised;\r\n    }\r\n\r\n    function cap() public view returns (uint) {\r\n        return _cap;\r\n    }\r\n\r\n    function minSpent() public view returns (uint) {\r\n        return _minSpent;\r\n    }\r\n\r\n\r\n\r\n    modifier onlyOwner() {\r\n        require(msg.sender == _owner, \"Owner 0x0\");\r\n        _;\r\n    }\r\n\r\n    function raiseCap (uint amount) public onlyOwner(){\r\n        require(amount > 0, \"amount negative\");\r\n        _cap += amount;\r\n        emit CapRaised(_cap, _weiRaised);\r\n    }\r\n\r\n\r\n    function buyTokens(address beneficiary) public payable {\r\n        uint weiAmount = msg.value;\r\n        _preValidatePurchase(beneficiary, weiAmount);\r\n        uint tokens = _getTokenAmount(weiAmount);\r\n        _weiRaised = _weiRaised.add(weiAmount);\r\n        _processPurchase(beneficiary, tokens);\r\n        emit TokensPurchased(msg.sender, beneficiary, weiAmount, tokens);\r\n        _forwardFunds();\r\n    }\r\n\r\n    function _preValidatePurchase(address beneficiary, uint weiAmount) internal {\r\n        require(_weiRaised <= _cap, \"cap reached\");\r\n        require(beneficiary != address(0), \"address 0x0\");\r\n        require(weiAmount != 0, \"Wei amount = 0\");\r\n        require(msg.value >= _minSpent, \"wei amount too low\");\r\n    }\r\n\r\n    function _deliverTokens(address beneficiary, uint tokenAmount) internal {\r\n        _token.transferFrom(_owner, beneficiary, tokenAmount);\r\n    }\r\n\r\n    function _processPurchase(address beneficiary, uint tokenAmount) internal {\r\n        _deliverTokens(beneficiary, tokenAmount);\r\n    }\r\n\r\n    function _getTokenAmount(uint weiAmount) internal view returns (uint) {\r\n        return weiAmount.mul(_rate);\r\n    }\r\n\r\n    function _forwardFunds() internal {\r\n        _owner.transfer(msg.value);\r\n    }\r\n}",
  "sourcePath": "C:/Users/Administrateur/Desktop/Hunga/contracts/Crowdsale.sol",
  "compiler": {
    "name": "solc",
    "version": "0.5.0+commit.1d4f565a.Emscripten.clang"
  },
  "schemaVersion": "3.0.5",
  "updatedAt": "2020-04-08T07:06:51.245Z",
  "devdoc": {
    "methods": {}
  },
  "userdoc": {
    "methods": {}
  }
}