{
  "contractName": "Jungle",
  "abi": [
    {
      "constant": false,
      "inputs": [],
      "name": "renounceOwnership",
      "outputs": [],
      "payable": false,
      "stateMutability": "nonpayable",
      "type": "function",
      "signature": "0x715018a6"
    },
    {
      "constant": true,
      "inputs": [],
      "name": "owner",
      "outputs": [
        {
          "name": "",
          "type": "address"
        }
      ],
      "payable": false,
      "stateMutability": "view",
      "type": "function",
      "signature": "0x8da5cb5b"
    },
    {
      "constant": true,
      "inputs": [],
      "name": "isOwner",
      "outputs": [
        {
          "name": "",
          "type": "bool"
        }
      ],
      "payable": false,
      "stateMutability": "view",
      "type": "function",
      "signature": "0x8f32d59b"
    },
    {
      "constant": false,
      "inputs": [
        {
          "name": "newOwner",
          "type": "address"
        }
      ],
      "name": "transferOwnership",
      "outputs": [],
      "payable": false,
      "stateMutability": "nonpayable",
      "type": "function",
      "signature": "0xf2fde38b"
    },
    {
      "inputs": [
        {
          "name": "erc721",
          "type": "address"
        },
        {
          "name": "erc20",
          "type": "address"
        }
      ],
      "payable": false,
      "stateMutability": "nonpayable",
      "type": "constructor",
      "signature": "constructor"
    },
    {
      "anonymous": false,
      "inputs": [
        {
          "indexed": true,
          "name": "owner",
          "type": "address"
        },
        {
          "indexed": false,
          "name": "tokenId",
          "type": "uint256"
        }
      ],
      "name": "HungaDiscovered",
      "type": "event",
      "signature": "0xb740852062e4f3464283e69722250b7e83bb2519bf8c4c859061c95764a353aa"
    },
    {
      "anonymous": false,
      "inputs": [
        {
          "indexed": true,
          "name": "owner",
          "type": "address"
        },
        {
          "indexed": false,
          "name": "tokenId",
          "type": "uint256"
        }
      ],
      "name": "HungaDeleted",
      "type": "event",
      "signature": "0x9b7b8babf84542a205f6ffb8944028d7d4114987f96c3c94ac5c394c7de85fdd"
    },
    {
      "anonymous": false,
      "inputs": [
        {
          "indexed": true,
          "name": "from",
          "type": "address"
        },
        {
          "indexed": true,
          "name": "to",
          "type": "address"
        },
        {
          "indexed": false,
          "name": "tokenId",
          "type": "uint256"
        }
      ],
      "name": "HungaTransfered",
      "type": "event",
      "signature": "0x51e74e863a93123d0cf4fba12ac6940647341c5e6525e10d017d3a10e38809b6"
    },
    {
      "anonymous": false,
      "inputs": [
        {
          "indexed": true,
          "name": "owner",
          "type": "address"
        },
        {
          "indexed": false,
          "name": "tokenId",
          "type": "uint256"
        }
      ],
      "name": "HungaFed",
      "type": "event",
      "signature": "0xb566ef50c6f6e7c52b65843e097b51a8057761b7d265432a7cf9751bb9d5115d"
    },
    {
      "anonymous": false,
      "inputs": [
        {
          "indexed": true,
          "name": "seller",
          "type": "address"
        },
        {
          "indexed": false,
          "name": "tokenId",
          "type": "uint256"
        }
      ],
      "name": "AuctionCreated",
      "type": "event",
      "signature": "0x3249a06bd478adf780bb7930214ad005e9cfa517d63221c0b77f27199d1a58b3"
    },
    {
      "anonymous": false,
      "inputs": [
        {
          "indexed": true,
          "name": "claimer",
          "type": "address"
        },
        {
          "indexed": false,
          "name": "tokenId",
          "type": "uint256"
        }
      ],
      "name": "AuctionClaimed",
      "type": "event",
      "signature": "0x10a4b36a41aae32780e0984ce67fee4a5a8929f404dfd68df31b645baa018991"
    },
    {
      "anonymous": false,
      "inputs": [
        {
          "indexed": true,
          "name": "bidder",
          "type": "address"
        },
        {
          "indexed": false,
          "name": "tokenId",
          "type": "uint256"
        },
        {
          "indexed": false,
          "name": "price",
          "type": "uint256"
        }
      ],
      "name": "NewBid",
      "type": "event",
      "signature": "0x87f5b2fe112bf269d30fb8ca9dc0bde0afd0cc39258e13fafd75fe794795bf0e"
    },
    {
      "anonymous": false,
      "inputs": [
        {
          "indexed": true,
          "name": "previousOwner",
          "type": "address"
        },
        {
          "indexed": true,
          "name": "newOwner",
          "type": "address"
        }
      ],
      "name": "OwnershipTransferred",
      "type": "event",
      "signature": "0x8be0079c531659141344cd1fd0a4f28419497f9722a3daafe3b4186f6b6457e0"
    },
    {
      "constant": true,
      "inputs": [
        {
          "name": "id",
          "type": "uint256"
        }
      ],
      "name": "getOwnerOfhunga",
      "outputs": [
        {
          "name": "",
          "type": "address"
        }
      ],
      "payable": false,
      "stateMutability": "view",
      "type": "function",
      "signature": "0xe1b40853"
    },
    {
      "constant": true,
      "inputs": [
        {
          "name": "id",
          "type": "uint256"
        }
      ],
      "name": "getAuctioned",
      "outputs": [
        {
          "name": "seller",
          "type": "address"
        },
        {
          "name": "lastBidder",
          "type": "address"
        },
        {
          "name": "startDate",
          "type": "uint256"
        },
        {
          "name": "priceToBid",
          "type": "uint256"
        },
        {
          "name": "bestOffer",
          "type": "uint256"
        }
      ],
      "payable": false,
      "stateMutability": "view",
      "type": "function",
      "signature": "0xbab5ce65"
    },
    {
      "constant": true,
      "inputs": [
        {
          "name": "id",
          "type": "uint256"
        }
      ],
      "name": "isAuctioned",
      "outputs": [
        {
          "name": "",
          "type": "bool"
        }
      ],
      "payable": false,
      "stateMutability": "view",
      "type": "function",
      "signature": "0xb5cb00ec"
    },
    {
      "constant": false,
      "inputs": [],
      "name": "PRNG",
      "outputs": [
        {
          "name": "",
          "type": "uint256"
        }
      ],
      "payable": false,
      "stateMutability": "nonpayable",
      "type": "function",
      "signature": "0x564ef91d"
    },
    {
      "constant": false,
      "inputs": [
        {
          "name": "to",
          "type": "address"
        },
        {
          "name": "hungaTrapId",
          "type": "uint256"
        }
      ],
      "name": "discoverHunga",
      "outputs": [
        {
          "name": "",
          "type": "bool"
        }
      ],
      "payable": false,
      "stateMutability": "nonpayable",
      "type": "function",
      "signature": "0x02094a51"
    },
    {
      "constant": false,
      "inputs": [
        {
          "name": "id",
          "type": "uint256"
        }
      ],
      "name": "deadHunga",
      "outputs": [],
      "payable": false,
      "stateMutability": "nonpayable",
      "type": "function",
      "signature": "0xdce8cb71"
    },
    {
      "constant": false,
      "inputs": [
        {
          "name": "id",
          "type": "uint256"
        }
      ],
      "name": "claimReward",
      "outputs": [
        {
          "name": "",
          "type": "bool"
        }
      ],
      "payable": false,
      "stateMutability": "nonpayable",
      "type": "function",
      "signature": "0xae169a50"
    },
    {
      "constant": false,
      "inputs": [
        {
          "name": "feededId",
          "type": "uint256"
        },
        {
          "name": "feederId",
          "type": "uint256"
        }
      ],
      "name": "feedHunga",
      "outputs": [
        {
          "name": "",
          "type": "bool"
        }
      ],
      "payable": false,
      "stateMutability": "nonpayable",
      "type": "function",
      "signature": "0xb4ff2032"
    },
    {
      "constant": false,
      "inputs": [
        {
          "name": "id",
          "type": "uint256"
        },
        {
          "name": "initialPrice",
          "type": "uint256"
        }
      ],
      "name": "createAuction",
      "outputs": [],
      "payable": false,
      "stateMutability": "nonpayable",
      "type": "function",
      "signature": "0x0121683f"
    },
    {
      "constant": false,
      "inputs": [
        {
          "name": "id",
          "type": "uint256"
        },
        {
          "name": "value",
          "type": "uint256"
        }
      ],
      "name": "bidOnAuction",
      "outputs": [],
      "payable": false,
      "stateMutability": "nonpayable",
      "type": "function",
      "signature": "0x9f635120"
    },
    {
      "constant": false,
      "inputs": [
        {
          "name": "receiver",
          "type": "address"
        },
        {
          "name": "id",
          "type": "uint256"
        }
      ],
      "name": "transferhunga",
      "outputs": [],
      "payable": false,
      "stateMutability": "nonpayable",
      "type": "function",
      "signature": "0x188a71d9"
    },
    {
      "constant": false,
      "inputs": [
        {
          "name": "id",
          "type": "uint256"
        }
      ],
      "name": "claimAuction",
      "outputs": [],
      "payable": false,
      "stateMutability": "nonpayable",
      "type": "function",
      "signature": "0x9aafc6c9"
    }
  ],
  "bytecode": "0x608060405234801561001057600080fd5b50604051604080613d6b8339810180604052604081101561003057600080fd5b810190808051906020019092919080519060200190929190505050336000806101000a81548173ffffffffffffffffffffffffffffffffffffffff021916908373ffffffffffffffffffffffffffffffffffffffff1602179055506000809054906101000a900473ffffffffffffffffffffffffffffffffffffffff1673ffffffffffffffffffffffffffffffffffffffff16600073ffffffffffffffffffffffffffffffffffffffff167f8be0079c531659141344cd1fd0a4f28419497f9722a3daafe3b4186f6b6457e060405160405180910390a381600760006101000a81548173ffffffffffffffffffffffffffffffffffffffff021916908373ffffffffffffffffffffffffffffffffffffffff16021790555080600860006101000a81548173ffffffffffffffffffffffffffffffffffffffff021916908373ffffffffffffffffffffffffffffffffffffffff160217905550600060098190555060a060405190810160405280600081526020016032815260200160478152602001601781526020016005815250600a600080815260200190815260200160002060008201518160000155602082015181600101556040820151816002015560608201518160030155608082015181600401559050505050613b54806102176000396000f3fe6080604052600436106100e6576000357c0100000000000000000000000000000000000000000000000000000000900463ffffffff1680630121683f146100eb57806302094a5114610130578063188a71d9146101a3578063564ef91d146101fe578063715018a6146102295780638da5cb5b146102405780638f32d59b146102975780639aafc6c9146102c65780639f63512014610301578063ae169a5014610346578063b4ff203214610399578063b5cb00ec146103f6578063bab5ce6514610449578063dce8cb711461050c578063e1b4085314610547578063f2fde38b146105c2575b600080fd5b3480156100f757600080fd5b5061012e6004803603604081101561010e57600080fd5b810190808035906020019092919080359060200190929190505050610613565b005b34801561013c57600080fd5b506101896004803603604081101561015357600080fd5b81019080803573ffffffffffffffffffffffffffffffffffffffff1690602001909291908035906020019092919050505061096d565b604051808215151515815260200191505060405180910390f35b3480156101af57600080fd5b506101fc600480360360408110156101c657600080fd5b81019080803573ffffffffffffffffffffffffffffffffffffffff16906020019092919080359060200190929190505050611131565b005b34801561020a57600080fd5b50610213611140565b6040518082815260200191505060405180910390f35b34801561023557600080fd5b5061023e6111d5565b005b34801561024c57600080fd5b50610255611310565b604051808273ffffffffffffffffffffffffffffffffffffffff1673ffffffffffffffffffffffffffffffffffffffff16815260200191505060405180910390f35b3480156102a357600080fd5b506102ac611339565b604051808215151515815260200191505060405180910390f35b3480156102d257600080fd5b506102ff600480360360208110156102e957600080fd5b8101908080359060200190929190505050611390565b005b34801561030d57600080fd5b506103446004803603604081101561032457600080fd5b8101908080359060200190929190803590602001909291905050506115ed565b005b34801561035257600080fd5b5061037f6004803603602081101561036957600080fd5b810190808035906020019092919050505061185a565b604051808215151515815260200191505060405180910390f35b3480156103a557600080fd5b506103dc600480360360408110156103bc57600080fd5b810190808035906020019092919080359060200190929190505050611c63565b604051808215151515815260200191505060405180910390f35b34801561040257600080fd5b5061042f6004803603602081101561041957600080fd5b81019080803590602001909291905050506120bf565b604051808215151515815260200191505060405180910390f35b34801561045557600080fd5b506104826004803603602081101561046c57600080fd5b81019080803590602001909291905050506120e9565b604051808673ffffffffffffffffffffffffffffffffffffffff1673ffffffffffffffffffffffffffffffffffffffff1681526020018573ffffffffffffffffffffffffffffffffffffffff1673ffffffffffffffffffffffffffffffffffffffff1681526020018481526020018381526020018281526020019550505050505060405180910390f35b34801561051857600080fd5b506105456004803603602081101561052f57600080fd5b81019080803590602001909291905050506122b0565b005b34801561055357600080fd5b506105806004803603602081101561056a57600080fd5b810190808035906020019092919050505061256c565b604051808273ffffffffffffffffffffffffffffffffffffffff1673ffffffffffffffffffffffffffffffffffffffff16815260200191505060405180910390f35b3480156105ce57600080fd5b50610611600480360360208110156105e557600080fd5b81019080803573ffffffffffffffffffffffffffffffffffffffff169060200190929190505050612680565b005b816001600082815260200190815260200160002060009054906101000a900473ffffffffffffffffffffffffffffffffffffffff1673ffffffffffffffffffffffffffffffffffffffff163373ffffffffffffffffffffffffffffffffffffffff161415156106ea576040517f08c379a000000000000000000000000000000000000000000000000000000000815260040180806020018281038252600f8152602001807f4e6f742068756e6761206f776e6572000000000000000000000000000000000081525060200191505060405180910390fd5b6005600084815260200190815260200160002060009054906101000a900460ff16151515610780576040517f08c379a00000000000000000000000000000000000000000000000000000000081526004018080602001828103825260118152602001807f616c72656164792061756374696f6e656400000000000000000000000000000081525060200191505060405180910390fd5b60016005600085815260200190815260200160002060006101000a81548160ff02191690831515021790555060006107ef6003600086815260200190815260200160002060010160009054906101000a900460ff1660038111156107e057fe5b8461270890919063ffffffff16565b905060c0604051908101604052803373ffffffffffffffffffffffffffffffffffffffff168152602001600073ffffffffffffffffffffffffffffffffffffffff16815260200142815260200184815260200182815260200160008152506004600086815260200190815260200160002060008201518160000160006101000a81548173ffffffffffffffffffffffffffffffffffffffff021916908373ffffffffffffffffffffffffffffffffffffffff16021790555060208201518160010160006101000a81548173ffffffffffffffffffffffffffffffffffffffff021916908373ffffffffffffffffffffffffffffffffffffffff16021790555060408201518160020155606082015181600301556080820151816004015560a082015181600501559050503373ffffffffffffffffffffffffffffffffffffffff167f3249a06bd478adf780bb7930214ad005e9cfa517d63221c0b77f27199d1a58b3856040518082815260200191505060405180910390a250505050565b6000610977613a32565b600a600084815260200190815260200160002060a060405190810160405290816000820154815260200160018201548152602001600282015481526020016003820154815260200160048201548152505090508060200151600860009054906101000a900473ffffffffffffffffffffffffffffffffffffffff1673ffffffffffffffffffffffffffffffffffffffff166370a08231336040518263ffffffff167c0100000000000000000000000000000000000000000000000000000000028152600401808273ffffffffffffffffffffffffffffffffffffffff1673ffffffffffffffffffffffffffffffffffffffff16815260200191505060206040518083038186803b158015610a8a57600080fd5b505afa158015610a9e573d6000803e3d6000fd5b505050506040513d6020811015610ab457600080fd5b810190808051906020019092919050505010151515610b3b576040517f08c379a00000000000000000000000000000000000000000000000000000000081526004018080602001828103825260168152602001807f6e6f7420656e6f756768207065656c73206f776e65640000000000000000000081525060200191505060405180910390fd5b600860009054906101000a900473ffffffffffffffffffffffffffffffffffffffff1673ffffffffffffffffffffffffffffffffffffffff166323b872dd33600860009054906101000a900473ffffffffffffffffffffffffffffffffffffffff1673ffffffffffffffffffffffffffffffffffffffff16638da5cb5b6040518163ffffffff167c010000000000000000000000000000000000000000000000000000000002815260040160206040518083038186803b158015610bfe57600080fd5b505afa158015610c12573d6000803e3d6000fd5b505050506040513d6020811015610c2857600080fd5b810190808051906020019092919050505084602001516040518463ffffffff167c0100000000000000000000000000000000000000000000000000000000028152600401808473ffffffffffffffffffffffffffffffffffffffff1673ffffffffffffffffffffffffffffffffffffffff1681526020018373ffffffffffffffffffffffffffffffffffffffff1673ffffffffffffffffffffffffffffffffffffffff1681526020018281526020019350505050602060405180830381600087803b158015610cf657600080fd5b505af1158015610d0a573d6000803e3d6000fd5b505050506040513d6020811015610d2057600080fd5b8101908080519060200190929190505050506006600081548092919060010191905055506000610d4e611140565b90506000610d6a836040015184606001518560800151856127af565b90506000600483811515610d7a57fe5b066003811115610d8657fe5b90506000600a6001846003811115610d9a57fe5b010284811515610da657fe5b06600a846003811115610db557fe5b020190506000811415610dc757600390505b600060039050610dd5613a62565b610120604051908101604052806006548152602001866003811115610df657fe5b8152602001856003811115610e0757fe5b8152602001605a8152602001848152602001600081526020016000815260200183815260200160008152509050600260003373ffffffffffffffffffffffffffffffffffffffff1673ffffffffffffffffffffffffffffffffffffffff16815260200190815260200160002081908060018154018082558091505090600182039060005260206000209060080201600090919290919091506000820151816000015560208201518160010160006101000a81548160ff02191690836003811115610ecd57fe5b021790555060408201518160010160016101000a81548160ff02191690836003811115610ef657fe5b0217905550606082015181600201556080820151816003015560a0820151816004015560c0820151816005015560e082015181600601556101008201518160070155505050806003600060065481526020019081526020016000206000820151816000015560208201518160010160006101000a81548160ff02191690836003811115610f7f57fe5b021790555060408201518160010160016101000a81548160ff02191690836003811115610fa857fe5b0217905550606082015181600201556080820151816003015560a0820151816004015560c0820151816005015560e0820151816006015561010082015181600701559050508960016000600654815260200190815260200160002060006101000a81548173ffffffffffffffffffffffffffffffffffffffff021916908373ffffffffffffffffffffffffffffffffffffffff160217905550600760009054906101000a900473ffffffffffffffffffffffffffffffffffffffff1673ffffffffffffffffffffffffffffffffffffffff166379c650688b6006546040518363ffffffff167c0100000000000000000000000000000000000000000000000000000000028152600401808373ffffffffffffffffffffffffffffffffffffffff1673ffffffffffffffffffffffffffffffffffffffff16815260200182815260200192505050600060405180830381600087803b15801561110857600080fd5b505af115801561111c573d6000803e3d6000fd5b50505050600197505050505050505092915050565b61113c33838361292a565b5050565b6000600960008154809291906001019190505550600954336001430340604051602001808481526020018373ffffffffffffffffffffffffffffffffffffffff1673ffffffffffffffffffffffffffffffffffffffff166c0100000000000000000000000002815260140182815260200193505050506040516020818303038152906040528051906020012060019004905090565b6111dd611339565b1515611251576040517f08c379a00000000000000000000000000000000000000000000000000000000081526004018080602001828103825260098152602001807f6e6f74206f776e6572000000000000000000000000000000000000000000000081525060200191505060405180910390fd5b600073ffffffffffffffffffffffffffffffffffffffff166000809054906101000a900473ffffffffffffffffffffffffffffffffffffffff1673ffffffffffffffffffffffffffffffffffffffff167f8be0079c531659141344cd1fd0a4f28419497f9722a3daafe3b4186f6b6457e060405160405180910390a360008060006101000a81548173ffffffffffffffffffffffffffffffffffffffff021916908373ffffffffffffffffffffffffffffffffffffffff160217905550565b60008060009054906101000a900473ffffffffffffffffffffffffffffffffffffffff16905090565b60008060009054906101000a900473ffffffffffffffffffffffffffffffffffffffff1673ffffffffffffffffffffffffffffffffffffffff163373ffffffffffffffffffffffffffffffffffffffff1614905090565b806005600082815260200190815260200160002060009054906101000a900460ff161515611426576040517f08c379a00000000000000000000000000000000000000000000000000000000081526004018080602001828103825260138152602001807f6e6f742061756374696f6e65642068756e67610000000000000000000000000081525060200191505060405180910390fd5b3373ffffffffffffffffffffffffffffffffffffffff166004600084815260200190815260200160002060010160009054906101000a900473ffffffffffffffffffffffffffffffffffffffff1673ffffffffffffffffffffffffffffffffffffffff161415156114ff576040517f08c379a000000000000000000000000000000000000000000000000000000000815260040180806020018281038252601b8152602001807f796f7520617265206e6f7420746865206c61737420626964646572000000000081525060200191505060405180910390fd5b426202a30060046000858152602001908152602001600020600201540111151515611592576040517f08c379a000000000000000000000000000000000000000000000000000000000815260040180806020018281038252601a8152602001807f3220646179732068617665206e6f74207965742070617373656400000000000081525060200191505060405180910390fd5b61159b82612e30565b3373ffffffffffffffffffffffffffffffffffffffff167f10a4b36a41aae32780e0984ce67fee4a5a8929f404dfd68df31b645baa018991836040518082815260200191505060405180910390a25050565b6004600083815260200190815260200160002060000160009054906101000a900473ffffffffffffffffffffffffffffffffffffffff1673ffffffffffffffffffffffffffffffffffffffff163373ffffffffffffffffffffffffffffffffffffffff16141515156116c7576040517f08c379a000000000000000000000000000000000000000000000000000000000815260040180806020018281038252601b8152602001807f596f7520626964206f6e20796f7572206f776e2061756374696f6e000000000081525060200191505060405180910390fd5b6005600083815260200190815260200160002060009054906101000a900460ff16151561175c576040517f08c379a00000000000000000000000000000000000000000000000000000000081526004018080602001828103825260168152602001807f6e6f7420616e2061756374696f6e65642068756e67610000000000000000000081525060200191505060405180910390fd5b600460008381526020019081526020016000206004015481101515156117ea576040517f08c379a00000000000000000000000000000000000000000000000000000000081526004018080602001828103825260158152602001807f7072696365206e6f74206869676820656e6f756768000000000000000000000081525060200191505060405180910390fd5b6117f5338383612fa9565b611800338383613366565b3373ffffffffffffffffffffffffffffffffffffffff167f87f5b2fe112bf269d30fb8ca9dc0bde0afd0cc39258e13fafd75fe794795bf0e8383604051808381526020018281526020019250505060405180910390a25050565b6000816001600082815260200190815260200160002060009054906101000a900473ffffffffffffffffffffffffffffffffffffffff1673ffffffffffffffffffffffffffffffffffffffff163373ffffffffffffffffffffffffffffffffffffffff16141515611933576040517f08c379a000000000000000000000000000000000000000000000000000000000815260040180806020018281038252600f8152602001807f4e6f742068756e6761206f776e6572000000000000000000000000000000000081525060200191505060405180910390fd5b4262015180600360008681526020019081526020016000206005015401111515156119c6576040517f08c379a000000000000000000000000000000000000000000000000000000000815260040180806020018281038252601c8152602001807f6e6f7420323468207965742073696e6365206c61737420636c61696d0000000081525060200191505060405180910390fd5b6000600360008581526020019081526020016000206003015490506000600360008681526020019081526020016000206002015490506000600360008781526020019081526020016000206004015490506000611a4f8484611a4a600360008c815260200190815260200160002060010160019054906101000a900460ff166133fe565b613501565b90506000811415611a7057611a63876122b0565b6000955050505050611c5d565b600382811515611a7c57fe5b046003600089815260200190815260200160002060010160009054906101000a900460ff166003811115611aac57fe5b600360008a815260200190815260200160002060010160009054906101000a900460ff166003811115611adb57fe5b0202810190504260036000898152602001908152602001600020600501819055508180600101925050606482600a030284838486020202811515611b1b57fe5b0483039250826003600089815260200190815260200160002060020181905550816003600089815260200190815260200160002060040181905550600860009054906101000a900473ffffffffffffffffffffffffffffffffffffffff1673ffffffffffffffffffffffffffffffffffffffff1663bf199b9e33836040518363ffffffff167c0100000000000000000000000000000000000000000000000000000000028152600401808373ffffffffffffffffffffffffffffffffffffffff1673ffffffffffffffffffffffffffffffffffffffff16815260200182815260200192505050602060405180830381600087803b158015611c1b57600080fd5b505af1158015611c2f573d6000803e3d6000fd5b505050506040513d6020811015611c4557600080fd5b81019080805190602001909291905050509550505050505b50919050565b6000826001600082815260200190815260200160002060009054906101000a900473ffffffffffffffffffffffffffffffffffffffff1673ffffffffffffffffffffffffffffffffffffffff163373ffffffffffffffffffffffffffffffffffffffff16141515611d3c576040517f08c379a000000000000000000000000000000000000000000000000000000000815260040180806020018281038252600f8152602001807f4e6f742068756e6761206f776e6572000000000000000000000000000000000081525060200191505060405180910390fd5b826001600082815260200190815260200160002060009054906101000a900473ffffffffffffffffffffffffffffffffffffffff1673ffffffffffffffffffffffffffffffffffffffff163373ffffffffffffffffffffffffffffffffffffffff16141515611e13576040517f08c379a000000000000000000000000000000000000000000000000000000000815260040180806020018281038252600f8152602001807f4e6f742068756e6761206f776e6572000000000000000000000000000000000081525060200191505060405180910390fd5b6003600085815260200190815260200160002060010160019054906101000a900460ff166003811115611e4257fe5b6003600087815260200190815260200160002060010160019054906101000a900460ff166003811115611e7157fe5b141515611ee6576040517f08c379a000000000000000000000000000000000000000000000000000000000815260040180806020018281038252600d8152602001807f6e6f742073616d6520747970650000000000000000000000000000000000000081525060200191505060405180910390fd5b6003600086815260200190815260200160002060010160019054906101000a900460ff166003811115611f1557fe5b60016003600087815260200190815260200160002060010160019054906101000a900460ff166003811115611f4657fe5b01141515611fbc576040517f08c379a000000000000000000000000000000000000000000000000000000000815260040180806020018281038252601a8152602001807f666f6f642068756e6761206e6f74207261726520656e6f75676800000000000081525060200191505060405180910390fd5b611fc5846122b0565b60006001600360008881526020019081526020016000206006015403905060008114156120625760039050600060036000888152602001908152602001600020600201549050600381019050606481111561201f57606490505b8060036000898152602001908152602001600020600201819055506003600088815260200190815260200160002060030160008154809291906001019190505550505b3373ffffffffffffffffffffffffffffffffffffffff167fb566ef50c6f6e7c52b65843e097b51a8057761b7d265432a7cf9751bb9d5115d6006546040518082815260200191505060405180910390a26001935050505092915050565b60006005600083815260200190815260200160002060009054906101000a900460ff169050919050565b60008060008060006005600087815260200190815260200160002060009054906101000a900460ff161515612186576040517f08c379a000000000000000000000000000000000000000000000000000000000815260040180806020018281038252600d8152602001807f6e6f742061756374696f6e65640000000000000000000000000000000000000081525060200191505060405180910390fd5b61218e613ac5565b6004600088815260200190815260200160002060c060405190810160405290816000820160009054906101000a900473ffffffffffffffffffffffffffffffffffffffff1673ffffffffffffffffffffffffffffffffffffffff1673ffffffffffffffffffffffffffffffffffffffff1681526020016001820160009054906101000a900473ffffffffffffffffffffffffffffffffffffffff1673ffffffffffffffffffffffffffffffffffffffff1673ffffffffffffffffffffffffffffffffffffffff168152602001600282015481526020016003820154815260200160048201548152602001600582015481525050905080600001518160200151826040015183608001518460a00151955095509550955095505091939590929450565b806001600082815260200190815260200160002060009054906101000a900473ffffffffffffffffffffffffffffffffffffffff1673ffffffffffffffffffffffffffffffffffffffff163373ffffffffffffffffffffffffffffffffffffffff16141515612387576040517f08c379a000000000000000000000000000000000000000000000000000000000815260040180806020018281038252600f8152602001807f4e6f742068756e6761206f776e6572000000000000000000000000000000000081525060200191505060405180910390fd5b600760009054906101000a900473ffffffffffffffffffffffffffffffffffffffff1673ffffffffffffffffffffffffffffffffffffffff1663d1df306c33846040518363ffffffff167c0100000000000000000000000000000000000000000000000000000000028152600401808373ffffffffffffffffffffffffffffffffffffffff1673ffffffffffffffffffffffffffffffffffffffff16815260200182815260200192505050600060405180830381600087803b15801561244c57600080fd5b505af1158015612460573d6000803e3d6000fd5b5050505061246e3383613563565b600360008381526020019081526020016000206000808201600090556001820160006101000a81549060ff02191690556001820160016101000a81549060ff021916905560028201600090556003820160009055600482016000905560058201600090556006820160009055600782016000905550506001600083815260200190815260200160002060006101000a81549073ffffffffffffffffffffffffffffffffffffffff02191690553373ffffffffffffffffffffffffffffffffffffffff167f9b7b8babf84542a205f6ffb8944028d7d4114987f96c3c94ac5c394c7de85fdd836040518082815260200191505060405180910390a25050565b60008073ffffffffffffffffffffffffffffffffffffffff166001600084815260200190815260200160002060009054906101000a900473ffffffffffffffffffffffffffffffffffffffff1673ffffffffffffffffffffffffffffffffffffffff1614151515612645576040517f08c379a00000000000000000000000000000000000000000000000000000000081526004018080602001828103825260098152602001807f6e6f742068756e6761000000000000000000000000000000000000000000000081525060200191505060405180910390fd5b6001600083815260200190815260200160002060009054906101000a900473ffffffffffffffffffffffffffffffffffffffff169050919050565b612688611339565b15156126fc576040517f08c379a00000000000000000000000000000000000000000000000000000000081526004018080602001828103825260098152602001807f6e6f74206f776e6572000000000000000000000000000000000000000000000081525060200191505060405180910390fd5b6127058161386f565b50565b60008083141561271b57600090506127a9565b6000828402905082848281151561272e57fe5b041415156127a4576040517f08c379a00000000000000000000000000000000000000000000000000000000081526004018080602001828103825260148152602001807f6572726f72206d756c7469706c69636174696f6e00000000000000000000000081525060200191505060405180910390fd5b809150505b92915050565b60006064838587010110151561282d576040517f08c379a00000000000000000000000000000000000000000000000000000000081526004018080602001828103825260108152602001807f696d706f737369626c652072617465730000000000000000000000000000000081525060200191505060405180910390fd5b60008511801561283d5750600084115b80156128495750600083115b15156128bd576040517f08c379a00000000000000000000000000000000000000000000000000000000081526004018080602001828103825260108152602001807f72617465732063616e277420626520300000000000000000000000000000000081525060200191505060405180910390fd5b846064838115156128ca57fe5b061015156128db5760009050612922565b8385016064838115156128ea57fe5b061015156128fb5760019050612922565b828486010160648381151561290c57fe5b0610151561291d5760029050612922565b600390505b949350505050565b806001600082815260200190815260200160002060009054906101000a900473ffffffffffffffffffffffffffffffffffffffff1673ffffffffffffffffffffffffffffffffffffffff163373ffffffffffffffffffffffffffffffffffffffff16141515612a01576040517f08c379a000000000000000000000000000000000000000000000000000000000815260040180806020018281038252600f8152602001807f4e6f742068756e6761206f776e6572000000000000000000000000000000000081525060200191505060405180910390fd5b6000600360008481526020019081526020016000206000015414151515612a90576040517f08c379a00000000000000000000000000000000000000000000000000000000081526004018080602001828103825260098152602001807f6e6f742068756e6761000000000000000000000000000000000000000000000081525060200191505060405180910390fd5b6005600083815260200190815260200160002060009054906101000a900460ff16151515612b26576040517f08c379a000000000000000000000000000000000000000000000000000000000815260040180806020018281038252600f8152602001807f61756374696f6e65642068756e6761000000000000000000000000000000000081525060200191505060405180910390fd5b600760009054906101000a900473ffffffffffffffffffffffffffffffffffffffff1673ffffffffffffffffffffffffffffffffffffffff166323b872dd8585856040518463ffffffff167c0100000000000000000000000000000000000000000000000000000000028152600401808473ffffffffffffffffffffffffffffffffffffffff1673ffffffffffffffffffffffffffffffffffffffff1681526020018373ffffffffffffffffffffffffffffffffffffffff1673ffffffffffffffffffffffffffffffffffffffff1681526020018281526020019350505050600060405180830381600087803b158015612c1f57600080fd5b505af1158015612c33573d6000803e3d6000fd5b50505050612c418483613563565b600260008473ffffffffffffffffffffffffffffffffffffffff1673ffffffffffffffffffffffffffffffffffffffff1681526020019081526020016000206003600084815260200190815260200160002090806001815401808255809150509060018203906000526020600020906008020160009091929091909150600082015481600001556001820160009054906101000a900460ff168160010160006101000a81548160ff02191690836003811115612cf957fe5b02179055506001820160019054906101000a900460ff168160010160016101000a81548160ff02191690836003811115612d2f57fe5b0217905550600282015481600201556003820154816003015560048201548160040155600582015481600501556006820154816006015560078201548160070155505050826001600084815260200190815260200160002060006101000a81548173ffffffffffffffffffffffffffffffffffffffff021916908373ffffffffffffffffffffffffffffffffffffffff1602179055508273ffffffffffffffffffffffffffffffffffffffff168473ffffffffffffffffffffffffffffffffffffffff167f51e74e863a93123d0cf4fba12ac6940647341c5e6525e10d017d3a10e38809b6846040518082815260200191505060405180910390a350505050565b6000600460008381526020019081526020016000209050600073ffffffffffffffffffffffffffffffffffffffff168160010160009054906101000a900473ffffffffffffffffffffffffffffffffffffffff1673ffffffffffffffffffffffffffffffffffffffff16141515612fa557612ef48160000160009054906101000a900473ffffffffffffffffffffffffffffffffffffffff168260010160009054906101000a900473ffffffffffffffffffffffffffffffffffffffff168461292a565b60006005600084815260200190815260200160002060006101000a81548160ff02191690831515021790555060046000838152602001908152602001600020600080820160006101000a81549073ffffffffffffffffffffffffffffffffffffffff02191690556001820160006101000a81549073ffffffffffffffffffffffffffffffffffffffff0219169055600282016000905560038201600090556004820160009055600582016000905550505b5050565b612fb1613ac5565b6004600084815260200190815260200160002060c060405190810160405290816000820160009054906101000a900473ffffffffffffffffffffffffffffffffffffffff1673ffffffffffffffffffffffffffffffffffffffff1673ffffffffffffffffffffffffffffffffffffffff1681526020016001820160009054906101000a900473ffffffffffffffffffffffffffffffffffffffff1673ffffffffffffffffffffffffffffffffffffffff1673ffffffffffffffffffffffffffffffffffffffff1681526020016002820154815260200160038201548152602001600482015481526020016005820154815250509050600073ffffffffffffffffffffffffffffffffffffffff16816020015173ffffffffffffffffffffffffffffffffffffffff1614151561322657600860009054906101000a900473ffffffffffffffffffffffffffffffffffffffff1673ffffffffffffffffffffffffffffffffffffffff166323b872dd826000015183602001518460a001516040518463ffffffff167c0100000000000000000000000000000000000000000000000000000000028152600401808473ffffffffffffffffffffffffffffffffffffffff1673ffffffffffffffffffffffffffffffffffffffff1681526020018373ffffffffffffffffffffffffffffffffffffffff1673ffffffffffffffffffffffffffffffffffffffff1681526020018281526020019350505050602060405180830381600087803b1580156131e557600080fd5b505af11580156131f9573d6000803e3d6000fd5b505050506040513d602081101561320f57600080fd5b810190808051906020019092919050505050613360565b600860009054906101000a900473ffffffffffffffffffffffffffffffffffffffff1673ffffffffffffffffffffffffffffffffffffffff166323b872dd858360000151856040518463ffffffff167c0100000000000000000000000000000000000000000000000000000000028152600401808473ffffffffffffffffffffffffffffffffffffffff1673ffffffffffffffffffffffffffffffffffffffff1681526020018373ffffffffffffffffffffffffffffffffffffffff1673ffffffffffffffffffffffffffffffffffffffff1681526020018281526020019350505050602060405180830381600087803b15801561332357600080fd5b505af1158015613337573d6000803e3d6000fd5b505050506040513d602081101561334d57600080fd5b8101908080519060200190929190505050505b50505050565b826004600084815260200190815260200160002060010160006101000a81548173ffffffffffffffffffffffffffffffffffffffff021916908373ffffffffffffffffffffffffffffffffffffffff1602179055506133c4826139d2565b6004600084815260200190815260200160002060040181905550806004600084815260200190815260200160002060050181905550505050565b60006002600381111561340d57fe5b82600381111561341957fe5b141561342857600190506134fc565b60038081111561343457fe5b82600381111561344057fe5b14156134725760006002613452611140565b81151561345b57fe5b061461346857600061346b565b60015b90506134fc565b6000620151804281151561348257fe5b0690506154608110158015613499575061fd208111155b156134cc57600060038111156134ab57fe5b8360038111156134b757fe5b14156134c75760019150506134fc565b6134f6565b600160038111156134d957fe5b8360038111156134e557fe5b14156134f55760019150506134fc565b5b60009150505b919050565b600080849050600084905083156135285760028602915060028581151561352457fe5b0490505b6000613532611140565b90508160648281151561354157fe5b061115156135545782935050505061355c565b600093505050505b9392505050565b6000600260008473ffffffffffffffffffffffffffffffffffffffff1673ffffffffffffffffffffffffffffffffffffffff16815260200190815260200160002080549050905060008090505b81811015613869576000600260008673ffffffffffffffffffffffffffffffffffffffff1673ffffffffffffffffffffffffffffffffffffffff1681526020019081526020016000208281548110151561360657fe5b90600052602060002090600802019050838160000154141561385b576001830382101561379a57600260008673ffffffffffffffffffffffffffffffffffffffff1673ffffffffffffffffffffffffffffffffffffffff1681526020019081526020016000206001840381548110151561367c57fe5b9060005260206000209060080201600260008773ffffffffffffffffffffffffffffffffffffffff1673ffffffffffffffffffffffffffffffffffffffff168152602001908152602001600020838154811015156136d657fe5b9060005260206000209060080201600082015481600001556001820160009054906101000a900460ff168160010160006101000a81548160ff0219169083600381111561371f57fe5b02179055506001820160019054906101000a900460ff168160010160016101000a81548160ff0219169083600381111561375557fe5b02179055506002820154816002015560038201548160030155600482015481600401556005820154816005015560068201548160060155600782015481600701559050505b600260008673ffffffffffffffffffffffffffffffffffffffff1673ffffffffffffffffffffffffffffffffffffffff168152602001908152602001600020600184038154811015156137e957fe5b90600052602060002090600802016000808201600090556001820160006101000a81549060ff02191690556001820160016101000a81549060ff021916905560028201600090556003820160009055600482016000905560058201600090556006820160009055600782016000905550505b5080806001019150506135b0565b50505050565b600073ffffffffffffffffffffffffffffffffffffffff168173ffffffffffffffffffffffffffffffffffffffff1614151515613914576040517f08c379a00000000000000000000000000000000000000000000000000000000081526004018080602001828103825260098152602001807f6e6f74206f776e6572000000000000000000000000000000000000000000000081525060200191505060405180910390fd5b8073ffffffffffffffffffffffffffffffffffffffff166000809054906101000a900473ffffffffffffffffffffffffffffffffffffffff1673ffffffffffffffffffffffffffffffffffffffff167f8be0079c531659141344cd1fd0a4f28419497f9722a3daafe3b4186f6b6457e060405160405180910390a3806000806101000a81548173ffffffffffffffffffffffffffffffffffffffff021916908373ffffffffffffffffffffffffffffffffffffffff16021790555050565b6000613a2b6003600084815260200190815260200160002060010160009054906101000a900460ff166003811115613a0657fe5b600460008581526020019081526020016000206004015461270890919063ffffffff16565b9050919050565b60a06040519081016040528060008152602001600081526020016000815260200160008152602001600081525090565b610120604051908101604052806000815260200160006003811115613a8357fe5b815260200160006003811115613a9557fe5b81526020016000815260200160008152602001600081526020016000815260200160008152602001600081525090565b60c060405190810160405280600073ffffffffffffffffffffffffffffffffffffffff168152602001600073ffffffffffffffffffffffffffffffffffffffff16815260200160008152602001600081526020016000815260200160008152509056fea165627a7a72305820ea63fb5931167e03a496a1a55125ac305b2af70d4b49ef63990ccd1f977783d20029",
  "source": "pragma solidity >=0.4.24;\r\n\r\nimport \"./Ownable.sol\";\r\nimport \"./SafeMath.sol\";\r\nimport \"./ERC721.sol\";\r\nimport \"./ERC20.sol\";\r\n\r\ncontract Jungle is Ownable {\r\n    using SafeMath for uint256;\r\n\r\n    event HungaDiscovered(address indexed owner, uint tokenId);\r\n    event HungaDeleted(address indexed owner, uint tokenId);\r\n    event HungaTransfered(address indexed from, address indexed to, uint tokenId);\r\n    event HungaFed(address indexed owner, uint tokenId);\r\n\r\n    event AuctionCreated(address indexed seller, uint tokenId);\r\n    event AuctionClaimed(address indexed claimer, uint tokenId);\r\n    event NewBid(address indexed bidder, uint tokenId, uint price);\r\n\r\n    enum Rank {Lame, Knight, Duke, Legendary}\r\n    enum HungaType {Solar, Lunar, Radioactive, Disco}\r\n\r\n    mapping (uint => address) private _hungaToOwner;\r\n    mapping (address => Hunga[]) private _hungasOfOwner;\r\n    mapping (uint => Hunga) private _hungasById;\r\n    mapping (uint => Auction) private _auctions;\r\n    mapping (uint => bool) private _auctionedhungas;\r\n\r\n    uint private _currentId;\r\n\r\n    ERC721 private _erc721;\r\n    ERC20 private _erc20;\r\n\r\n    uint nonce;\r\n\r\n    struct Hunga {\r\n        uint id;\r\n\r\n        Rank rank;\r\n        HungaType hungaType;\r\n\r\n        uint risk;\r\n        uint reward;\r\n\r\n        uint claimCount;\r\n        uint lastClaimed; // time at which owner last claimed\r\n\r\n        uint feedToImprove; // number of hungas needed to improve hunga\r\n        uint lastFed; // time at which owner last fed hunga\r\n    }\r\n\r\n    struct HungaTrap {\r\n        uint id;\r\n\r\n        uint price;\r\n\r\n        uint LameRate;\r\n        uint KnightRate;\r\n        uint DukeRate;\r\n    }\r\n\r\n    mapping (uint => HungaTrap) private _hungaTraps; //packs\r\n\r\n    struct Auction {\r\n        address seller;\r\n        address lastBidder;\r\n\r\n        uint startDate;\r\n        uint initialPrice;\r\n\r\n        uint priceToBid;\r\n        uint bestOffer;\r\n    }\r\n\r\n    constructor(ERC721 erc721, ERC20 erc20) public {\r\n        _erc721 = erc721;\r\n        _erc20 = erc20;\r\n        nonce = 0;\r\n        _hungaTraps[0] = HungaTrap(0, 50, 71, 23, 5);\r\n    }\r\n\r\n\r\n\r\n    function getOwnerOfhunga(uint id) public view returns (address) {\r\n        require(_hungaToOwner[id] != address(0), \"not hunga\");\r\n        return _hungaToOwner[id];\r\n    }\r\n\r\n    modifier onlyOwnerOfhunga(uint id) {\r\n        require(msg.sender == _hungaToOwner[id], \"Not hunga owner\");\r\n        _;\r\n    }\r\n\r\n\r\n\r\n    function getAuctioned(uint id) public view returns (address seller, address lastBidder, uint startDate, uint priceToBid, uint bestOffer) {\r\n        require(_auctionedhungas[id], \"not auctioned\");\r\n        Auction memory auction = _auctions[id];\r\n        return (auction.seller, auction.lastBidder, auction.startDate, auction.priceToBid, auction.bestOffer);\r\n    }\r\n\r\n    function isAuctioned(uint id) public view returns (bool) {\r\n        return _auctionedhungas[id];\r\n    }\r\n\r\n    modifier onlyAuctionedhunga(uint id) {\r\n        require(_auctionedhungas[id], \"not auctioned hunga\");\r\n        _;\r\n    }\r\n\r\n\r\n\r\n\r\n\r\n    function PRNG() public returns(uint) {\r\n        nonce++;\r\n        return uint(keccak256(abi.encodePacked(nonce, msg.sender, blockhash(block.number - 1))));\r\n    }\r\n\r\n    function discoverRank(uint lameRate, uint knightRate, uint dukeRate, uint rng) internal pure returns (Rank){\r\n        require(lameRate + knightRate + dukeRate < 100, \"impossible rates\");\r\n        require(lameRate > 0 && knightRate > 0 && dukeRate > 0, \"rates can't be 0\");\r\n\r\n        if(rng%100 >= lameRate) return Rank.Lame;\r\n        if(rng%100 >= lameRate + knightRate) return Rank.Knight;\r\n        if(rng%100 >= lameRate + knightRate + dukeRate) return Rank.Duke;\r\n        else return Rank.Legendary;\r\n    }\r\n\r\n    function discoverHunga(address to, uint hungaTrapId) public returns (bool) {\r\n        HungaTrap memory hg = _hungaTraps[hungaTrapId]; // gas ?\r\n\r\n        require(_erc20.balanceOf(msg.sender) >= hg.price, \"not enough peels owned\");\r\n\r\n        _erc20.transferFrom(msg.sender, _erc20.owner(), hg.price);\r\n\r\n        _currentId++;\r\n\r\n        uint rnd = PRNG();\r\n        Rank rnk = discoverRank(hg.LameRate, hg.KnightRate, hg.DukeRate, rnd);\r\n        HungaType hngtp = HungaType(rnd % 4);\r\n\r\n        uint reward = uint(rnk) * 10 + rnd % ((uint(rnk) + 1) * 10);\r\n        if(reward == 0) reward = 3;\r\n        uint feed = 3;\r\n\r\n        Hunga memory hunga = Hunga(_currentId, rnk, hngtp, 90, reward, 0, 0, feed, 0);\r\n\r\n        _hungasOfOwner[msg.sender].push(hunga);\r\n        _hungasById[_currentId] = hunga;\r\n        _hungaToOwner[_currentId] = to;\r\n\r\n        _erc721.mintToken(to, _currentId);\r\n\r\n        return true;\r\n    }\r\n\r\n\r\n\r\n\r\n\r\n    function _removeFromArray(address owner, uint id) private {\r\n        uint size = _hungasOfOwner[owner].length;\r\n        for (uint index = 0; index < size; index++) {\r\n            Hunga storage hunga = _hungasOfOwner[owner][index];\r\n            if (hunga.id == id) {\r\n                if (index < size - 1) {\r\n                    _hungasOfOwner[owner][index] = _hungasOfOwner[owner][size - 1];\r\n                }\r\n                delete _hungasOfOwner[owner][size - 1];\r\n            }\r\n        }\r\n    }\r\n\r\n    function deadHunga(uint id) public onlyOwnerOfhunga(id) {\r\n        _erc721.burnToken(msg.sender, id);\r\n        _removeFromArray(msg.sender, id);\r\n        delete _hungasById[id];\r\n        delete _hungaToOwner[id];\r\n        emit HungaDeleted(msg.sender, id);\r\n    }\r\n\r\n\r\n\r\n\r\n\r\n\r\n    function isSurge(HungaType hgt) internal returns (bool bi){//92izi\r\n        if(hgt == HungaType.Radioactive) return true;\r\n        if(hgt == HungaType.Disco) return PRNG() % 2 == 0 ? true : false;\r\n        uint time = now % 1 days;\r\n        if(time >= 6 hours && time <= 18 hours){\r\n            if(hgt == HungaType.Solar) return true;\r\n        }\r\n        else if (hgt == HungaType.Lunar) return true;\r\n        return false;\r\n    }\r\n\r\n    function getReward(uint hReward, uint hRisk, bool surge) internal returns (uint rwrd){\r\n        uint _reward = hReward;\r\n        uint _risk = hRisk;\r\n        if(surge){\r\n            _reward = hReward * 2;\r\n            _risk = hRisk / 2;\r\n        }\r\n        uint rnd = PRNG();\r\n        if(rnd%100 <= _risk) return _reward;\r\n        else return 0;\r\n    }\r\n\r\n    function claimReward(uint id) public onlyOwnerOfhunga(id) returns (bool) {\r\n        require(_hungasById[id].lastClaimed + 86400 <= now, \"not 24h yet since last claim\");\r\n\r\n        uint _reward = _hungasById[id].reward;\r\n        uint _risk = _hungasById[id].risk;\r\n        uint _count = _hungasById[id].claimCount;\r\n\r\n        uint _bananes = getReward(_reward, _risk, isSurge(_hungasById[id].hungaType));\r\n\r\n        if(_bananes == 0){\r\n            deadHunga(id);\r\n            return false;\r\n        }\r\n\r\n        _bananes += uint(_hungasById[id].rank)*uint(_hungasById[id].rank)*(_count/3); // rewards risk taken \r\n\r\n        _hungasById[id].lastClaimed = now;\r\n        _count++;\r\n        _risk -= _risk * _count * _count * _reward / ((10-_count) * 100);\r\n        \r\n        _hungasById[id].risk = _risk;\r\n        _hungasById[id].claimCount = _count;\r\n\r\n        return _erc20.transferFromTrusted(msg.sender, _bananes);\r\n    }\r\n\r\n\r\n\r\n\r\n\r\n\r\n\r\n\r\n    function feedHunga(uint feededId, uint feederId) public  onlyOwnerOfhunga(feededId) onlyOwnerOfhunga(feederId) returns (bool) {\r\n        require(_hungasById[feededId].hungaType == _hungasById[feederId].hungaType, \"not same type\");\r\n        require(uint(_hungasById[feederId].hungaType) + 1 == uint(_hungasById[feededId].hungaType), \"food hunga not rare enough\");\r\n        deadHunga(feederId);\r\n        uint feed = _hungasById[feededId].feedToImprove - 1;\r\n        if(feed == 0){\r\n            feed = 3;\r\n\r\n            uint rsk = _hungasById[feededId].risk;\r\n            rsk += 3;\r\n            if(rsk > 100) rsk = 100;\r\n            _hungasById[feededId].risk = rsk;\r\n\r\n            _hungasById[feededId].reward++;\r\n        }\r\n        emit HungaFed(msg.sender, _currentId);\r\n        return true;\r\n    }\r\n\r\n\r\n\r\n\r\n\r\n\r\n\r\n    function createAuction(uint id, uint initialPrice) public  onlyOwnerOfhunga(id) {\r\n        require(!_auctionedhungas[id], \"already auctioned\");\r\n        _auctionedhungas[id] = true;\r\n        uint priceToBid = initialPrice.mul(uint(_hungasById[id].rank));\r\n        _auctions[id] = Auction(msg.sender, address(0), now, initialPrice, priceToBid, 0);\r\n        emit AuctionCreated(msg.sender, id);\r\n    }\r\n\r\n    function bidOnAuction(uint id, uint value) public  {\r\n        require(msg.sender != _auctions[id].seller, \"You bid on your own auction\");\r\n        require(_auctionedhungas[id], \"not an auctioned hunga\");\r\n        require(value >= _auctions[id].priceToBid, \"price not high enough\");\r\n        _transferTokenBid(msg.sender, id, value);\r\n        _updateAuction(msg.sender, id, value);\r\n        emit NewBid(msg.sender, id, value);\r\n    }\r\n\r\n    function _transferTokenBid(address newBidder, uint id, uint value) private {\r\n        Auction memory auction = _auctions[id];\r\n        if (auction.lastBidder != address(0)) {\r\n            _erc20.transferFrom(auction.seller, auction.lastBidder, auction.bestOffer);\r\n        } else {\r\n            _erc20.transferFrom(newBidder, auction.seller, value);\r\n        } \r\n    } \r\n\r\n    function _updateAuction(address newBidder, uint id, uint value) private {\r\n        _auctions[id].lastBidder = newBidder;\r\n        _auctions[id].priceToBid = _calculatepriceToBid(id);\r\n        _auctions[id].bestOffer = value;\r\n    }\r\n\r\n    function _calculatepriceToBid(uint id) private view returns (uint) {\r\n        return _auctions[id].priceToBid.mul(uint(_hungasById[id].rank));\r\n    }\r\n\r\n    function transferhunga(address receiver, uint id) public {\r\n        _transferhunga(msg.sender, receiver, id);\r\n    }\r\n\r\n    // Auctioned hunga are locked\r\n    function _transferhunga(address sender, address receiver, uint id) private onlyOwnerOfhunga(id) {\r\n        require(_hungasById[id].id != 0, \"not hunga\");\r\n        require(!_auctionedhungas[id], \"auctioned hunga\");\r\n        _erc721.transferFrom(sender, receiver, id);\r\n        _removeFromArray(sender, id);\r\n        _hungasOfOwner[receiver].push(_hungasById[id]);\r\n        _hungaToOwner[id] = receiver;\r\n        emit HungaTransfered(sender, receiver, id);\r\n    }\r\n\r\n    function claimAuction(uint id) public onlyAuctionedhunga(id) {\r\n        require(_auctions[id].lastBidder == msg.sender, \"you are not the last bidder\");\r\n        require(_auctions[id].startDate + 2 days <= now, \"2 days have not yet passed\");\r\n        _processRetrieveAuction(id);\r\n        emit AuctionClaimed(msg.sender, id);\r\n    }\r\n\r\n    function _processRetrieveAuction(uint id) private {\r\n        Auction storage auction = _auctions[id];\r\n        if (auction.lastBidder != address(0)) {\r\n            _transferhunga(auction.seller, auction.lastBidder, id);\r\n            _auctionedhungas[id] = false;\r\n            delete _auctions[id];\r\n        }\r\n    }\r\n          \r\n}",
  "sourcePath": "C:/Users/Administrateur/Desktop/Hunga/contracts/Jungle.sol",
  "compiler": {
    "name": "solc",
    "version": "0.5.0+commit.1d4f565a.Emscripten.clang"
  },
  "schemaVersion": "3.0.5",
  "updatedAt": "2020-04-08T07:06:51.297Z",
  "devdoc": {
    "methods": {}
  },
  "userdoc": {
    "methods": {}
  }
}